{
  "contractName": "Cards",
  "abi": [
    {
      "constant": true,
      "inputs": [
        {
          "name": "",
          "type": "uint256"
        }
      ],
      "name": "details",
      "outputs": [
        {
          "name": "name",
          "type": "string"
        },
        {
          "name": "date",
          "type": "uint256"
        },
        {
          "name": "month",
          "type": "uint256"
        },
        {
          "name": "completed",
          "type": "bool"
        }
      ],
      "payable": false,
      "stateMutability": "view",
      "type": "function"
    },
    {
      "constant": true,
      "inputs": [],
      "name": "voteCount",
      "outputs": [
        {
          "name": "",
          "type": "uint256"
        }
      ],
      "payable": false,
      "stateMutability": "view",
      "type": "function"
    },
    {
      "inputs": [],
      "payable": false,
      "stateMutability": "nonpayable",
      "type": "constructor"
    },
    {
      "constant": false,
      "inputs": [
        {
          "name": "_content",
          "type": "string"
        },
        {
          "name": "date",
          "type": "uint256"
        },
        {
          "name": "month",
          "type": "uint256"
        }
      ],
      "name": "generateCard",
      "outputs": [],
      "payable": false,
      "stateMutability": "nonpayable",
      "type": "function"
    }
  ],
  "bytecode": "0x60806040526000805534801561001457600080fd5b5061005d6040518060400160405280600581526020017f6e697261760000000000000000000000000000000000000000000000000000008152506003600861006260201b60201c565b61018e565b60405180608001604052808481526020018381526020018281526020016000151581525060016000548154811061009557fe5b906000526020600020906004020160008201518160000190805190602001906100bf9291906100f3565b5060208201516001820155604082015160028201556060909101516003909101805460ff1916911515919091179055505050565b828054600181600116156101000203166002900490600052602060002090601f016020900481019282601f1061013457805160ff1916838001178555610161565b82800160010185558215610161579182015b82811115610161578251825591602001919060010190610146565b5061016d929150610171565b5090565b61018b91905b8082111561016d5760008155600101610177565b90565b6103e08061019d6000396000f3fe608060405234801561001057600080fd5b50600436106100415760003560e01c8063a005ec7a14610046578063af619b10146100f4578063c6384071146101a1575b600080fd5b6100636004803603602081101561005c57600080fd5b50356101bb565b604051808060200185815260200184815260200183151515158152602001828103825286818151815260200191508051906020019080838360005b838110156100b657818101518382015260200161009e565b50505050905090810190601f1680156100e35780820380516001836020036101000a031916815260200191505b509550505050505060405180910390f35b61019f6004803603606081101561010a57600080fd5b81019060208101813564010000000081111561012557600080fd5b82018360208201111561013757600080fd5b8035906020019184600183028401116401000000008311171561015957600080fd5b91908080601f0160208091040260200160405190810160405280939291908181526020018383808284376000920191909152509295505082359350505060200135610282565b005b6101a9610313565b60408051918252519081900360200190f35b600181815481106101c857fe5b60009182526020918290206004919091020180546040805160026001841615610100026000190190931692909204601f8101859004850283018501909152808252919350918391908301828280156102615780601f1061023657610100808354040283529160200191610261565b820191906000526020600020905b81548152906001019060200180831161024457829003601f168201915b50505050600183015460028401546003909401549293909290915060ff1684565b6040518060800160405280848152602001838152602001828152602001600015158152506001600054815481106102b557fe5b906000526020600020906004020160008201518160000190805190602001906102df929190610319565b5060208201516001820155604082015160028201556060909101516003909101805460ff1916911515919091179055505050565b60005481565b828054600181600116156101000203166002900490600052602060002090601f016020900481019282601f1061035a57805160ff1916838001178555610387565b82800160010185558215610387579182015b8281111561038757825182559160200191906001019061036c565b50610393929150610397565b5090565b6103b191905b80821115610393576000815560010161039d565b9056fea165627a7a7230582021152b8f1d041f8836b46ccbd53f0c4a2c067f77e4d5e0ddda2351e375bddecf0029",
  "source": "pragma solidity ^0.5.0;\n\ncontract Cards {\n    uint public voteCount = 0;\n\n    struct Detail {\n        string name;\n        uint date;\n        uint month;\n        bool completed;\n    }\n\n    Detail[] public details;\n\n    constructor() public {\n        generateCard(\"nirav\", 3, 8);\n    }\n\n    function generateCard(string memory _content, uint date, uint month) public {\n        details[voteCount] = Detail(_content, date, month, false);\n    }\n}",
  "sourcePath": "/home/nirav/Documents/voting/contracts/Voting.sol",
  "compiler": {
    "name": "solc",
    "version": "0.5.8+commit.23d335f2.Emscripten.clang"
  },
  "schemaVersion": "3.0.11",
  "updatedAt": "2019-07-23T13:44:49.910Z",
  "devdoc": {
    "methods": {}
  },
  "userdoc": {
    "methods": {}
  }
}