{
  "contractName": "Cards",
  "abi": [
    {
      "constant": true,
      "inputs": [],
      "name": "voteCount",
      "outputs": [
        {
          "name": "",
          "type": "uint256"
        }
      ],
      "payable": false,
      "stateMutability": "view",
      "type": "function"
    },
    {
      "inputs": [],
      "payable": false,
      "stateMutability": "nonpayable",
      "type": "constructor"
    },
    {
      "constant": false,
      "inputs": [
        {
          "name": "_content",
          "type": "string"
        },
        {
          "name": "date",
          "type": "uint256"
        },
        {
          "name": "month",
          "type": "uint256"
        }
      ],
      "name": "generateCard",
      "outputs": [],
      "payable": false,
      "stateMutability": "nonpayable",
      "type": "function"
    }
  ],
  "bytecode": "0x60806040526000805534801561001457600080fd5b5061005d6040518060400160405280600581526020017f6e697261760000000000000000000000000000000000000000000000000000008152506003600861006260201b60201c565b610085565b604080516080810182529384526020840192909252908201526000606090910152565b610157806100946000396000f3fe608060405234801561001057600080fd5b50600436106100365760003560e01c8063af619b101461003b578063c6384071146100e8575b600080fd5b6100e66004803603606081101561005157600080fd5b81019060208101813564010000000081111561006c57600080fd5b82018360208201111561007e57600080fd5b803590602001918460018302840111640100000000831117156100a057600080fd5b91908080601f0160208091040260200160405190810160405280939291908181526020018383808284376000920191909152509295505082359350505060200135610102565b005b6100f0610125565b60408051918252519081900360200190f35b604080516080810182529384526020840192909252908201526000606090910152565b6000548156fea165627a7a72305820076b3e4d8dcecae0e6e6d80e67b2b7a74bd86ebd0d9f167b08e5c9e2aaf1d1c20029",
  "source": "pragma solidity ^0.5.0;\n\ncontract Cards {\n    uint public voteCount = 0;\n\n    struct details {\n        string name;\n        uint date;\n        uint month;\n        bool completed;\n    }\n\n    constructor() public {\n        generateCard(\"nirav\", 3, 8);\n    }\n\n    function generateCard(string memory _content, uint date, uint month) public {\n        details(_content, date, month, false);\n    }\n}",
  "sourcePath": "/home/nirav/Documents/voting/contracts/Voting.sol",
  "compiler": {
    "name": "solc",
    "version": "0.5.8+commit.23d335f2.Emscripten.clang"
  },
  "schemaVersion": "3.0.11",
  "updatedAt": "2019-07-22T11:45:15.512Z",
  "devdoc": {
    "methods": {}
  },
  "userdoc": {
    "methods": {}
  }
}