{
  "contractName": "Voting",
  "abi": [
    {
      "constant": true,
      "inputs": [],
      "name": "voteCount",
      "outputs": [
        {
          "name": "",
          "type": "uint256"
        }
      ],
      "payable": false,
      "stateMutability": "view",
      "type": "function"
    }
  ],
  "bytecode": "0x608060405260008055348015601357600080fd5b50607b806100226000396000f3fe6080604052348015600f57600080fd5b506004361060285760003560e01c8063c638407114602d575b600080fd5b60336049565b6040518082815260200191505060405180910390f35b6000548156fea165627a7a72305820a161cf9c33936ab88d83228ed861f49f444a0a9fd8b8cb7c48ae5e0761cf3e530029",
  "source": "pragma solidity ^0.5.0;\n\ncontract Voting {\n    uint public voteCount = 0;\n}",
  "sourcePath": "/home/nirav/Documents/voting/contracts/Voting.sol",
  "compiler": {
    "name": "solc",
    "version": "0.5.8+commit.23d335f2.Emscripten.clang"
  },
  "schemaVersion": "3.0.11",
  "updatedAt": "2019-07-23T13:14:27.844Z",
  "devdoc": {
    "methods": {}
  },
  "userdoc": {
    "methods": {}
  }
}